{
  "contractName": "Election",
  "abi": [
    {
      "constant": false,
      "inputs": [
        {
          "name": "vote",
          "type": "uint256"
        },
        {
          "name": "blindlySignedVote",
          "type": "uint256"
        }
      ],
      "name": "Vote",
      "outputs": [],
      "payable": false,
      "stateMutability": "nonpayable",
      "type": "function"
    },
    {
      "constant": true,
      "inputs": [],
      "name": "question",
      "outputs": [
        {
          "name": "",
          "type": "string"
        }
      ],
      "payable": false,
      "stateMutability": "view",
      "type": "function"
    },
    {
      "constant": false,
      "inputs": [
        {
          "name": "blindedVote",
          "type": "uint256"
        },
        {
          "name": "voter",
          "type": "address"
        }
      ],
      "name": "requestBlindlSig",
      "outputs": [
        {
          "name": "",
          "type": "address"
        }
      ],
      "payable": false,
      "stateMutability": "nonpayable",
      "type": "function"
    },
    {
      "constant": true,
      "inputs": [
        {
          "name": "",
          "type": "uint256"
        }
      ],
      "name": "votes",
      "outputs": [
        {
          "name": "",
          "type": "uint256"
        }
      ],
      "payable": false,
      "stateMutability": "view",
      "type": "function"
    },
    {
      "constant": true,
      "inputs": [],
      "name": "publicModulo",
      "outputs": [
        {
          "name": "",
          "type": "uint256"
        }
      ],
      "payable": false,
      "stateMutability": "view",
      "type": "function"
    },
    {
      "constant": false,
      "inputs": [
        {
          "name": "_voter",
          "type": "address"
        },
        {
          "name": "blindSig",
          "type": "uint256"
        }
      ],
      "name": "writeBlindSig",
      "outputs": [
        {
          "name": "",
          "type": "uint256"
        }
      ],
      "payable": false,
      "stateMutability": "nonpayable",
      "type": "function"
    },
    {
      "constant": true,
      "inputs": [],
      "name": "publicExponent",
      "outputs": [
        {
          "name": "",
          "type": "uint256"
        }
      ],
      "payable": false,
      "stateMutability": "view",
      "type": "function"
    },
    {
      "constant": true,
      "inputs": [
        {
          "name": "signature",
          "type": "uint256"
        },
        {
          "name": "voter",
          "type": "address"
        }
      ],
      "name": "owner",
      "outputs": [
        {
          "name": "",
          "type": "address"
        }
      ],
      "payable": false,
      "stateMutability": "view",
      "type": "function"
    },
    {
      "constant": true,
      "inputs": [
        {
          "name": "",
          "type": "uint256"
        }
      ],
      "name": "blindedVotes",
      "outputs": [
        {
          "name": "",
          "type": "address"
        }
      ],
      "payable": false,
      "stateMutability": "view",
      "type": "function"
    },
    {
      "constant": false,
      "inputs": [
        {
          "name": "blindlySignedVote",
          "type": "uint256"
        }
      ],
      "name": "verifyBlindSig",
      "outputs": [
        {
          "name": "",
          "type": "bool"
        }
      ],
      "payable": false,
      "stateMutability": "nonpayable",
      "type": "function"
    },
    {
      "constant": false,
      "inputs": [
        {
          "name": "_voter",
          "type": "address"
        }
      ],
      "name": "addEligibleVoter",
      "outputs": [],
      "payable": false,
      "stateMutability": "nonpayable",
      "type": "function"
    },
    {
      "constant": false,
      "inputs": [
        {
          "name": "_voter",
          "type": "address"
        }
      ],
      "name": "removeEligibleVoter",
      "outputs": [
        {
          "name": "eligible",
          "type": "bool"
        },
        {
          "name": "hasVoted",
          "type": "bool"
        },
        {
          "name": "blindedVote",
          "type": "uint256"
        },
        {
          "name": "signedBlindedVote",
          "type": "uint256"
        }
      ],
      "payable": false,
      "stateMutability": "nonpayable",
      "type": "function"
    },
    {
      "constant": true,
      "inputs": [
        {
          "name": "",
          "type": "address"
        }
      ],
      "name": "eligibleVoters",
      "outputs": [
        {
          "name": "eligible",
          "type": "bool"
        },
        {
          "name": "blindedVote",
          "type": "uint256"
        },
        {
          "name": "signedBlindedVote",
          "type": "uint256"
        },
        {
          "name": "signedBlindedVote",
          "type": "uint256"
        }
      ],
      "payable": false,
      "stateMutability": "view",
      "type": "function"
    },
    {
      "inputs": [
        {
          "name": "newOwner",
          "type": "address"
        },
        {
          "name": "_publicModulo",
          "type": "uint256"
        },
        {
          "name": "_publicExponent",
          "type": "uint256"
        }
      ],
      "payable": false,
      "stateMutability": "nonpayable",
      "type": "function",
      "constant": false,
      "name": "transferOwnership",
      "outputs": []
    },
    {
      "anonymous": false,
      "inputs": [
        {
          "indexed": true,
          "name": "_question",
          "type": "string"
        },
        {
          "indexed": true,
          "name": "_publicModulo",
          "type": "uint256"
        },
        {
          "name": "_publicExponent",
          "type": "uint256"
        }
      ],
      "name": "OwnershipTransferred",
      "type": "constructor",
      "payable": false,
      "stateMutability": "nonpayable"
    },
    {
      "anonymous": false,
      "inputs": [
        {
          "indexed": true,
          "name": "voter",
          "type": "address"
        }
      ],
      "name": "RequestToBlindlySign",
      "type": "event"
    },
    {
      "anonymous": false,
      "inputs": [
        {
          "indexed": true,
          "name": "previousOwner",
          "type": "address"
        },
        {
          "indexed": true,
          "name": "newOwner",
          "type": "address"
        }
      ],
      "name": "OwnershipTransferred",
      "type": "event"
    }
  ],
  "bytecode": "0x6060604052341561000f57600080fd5b604051610c19380380610c1983398101604052808051820191906020018051906020019091908051906020019091905050336000806101000a81548173ffffffffffffffffffffffffffffffffffffffff021916908373ffffffffffffffffffffffffffffffffffffffff16021790555082600490805190602001906100969291906100ad565b508160058190555080600681905550505050610152565b828054600181600116156101000203166002900490600052602060002090601f016020900481019282601f106100ee57805160ff191683800117855561011c565b8280016001018555821561011c579182015b8281111561011b578251825591602001919060010190610100565b5b509050610129919061012d565b5090565b61014f91905b8082111561014b576000816000905550600101610133565b5090565b90565b610ab8806101616000396000f3006060604052600436106100d0576000357c0100000000000000000000000000000000000000000000000000000000900463ffffffff16806333952ef9146100d55780633fad9ae014610101578063418d4abf1461018f5780635df81330146101d15780635ea753e6146102085780637107f85b146102315780637e81a286146102735780638da5cb5b1461029c578063bde83666146102f1578063d7d80aff14610354578063dc4d2dbc1461038f578063dec79c8a146103c8578063e8efd48014610401578063f2fde38b14610460575b600080fd5b34156100e057600080fd5b6100ff6004808035906020019091908035906020019091905050610499565b005b341561010c57600080fd5b6101146104d4565b6040518080602001828103825283818151815260200191508051906020019080838360005b83811015610154578082015181840152602081019050610139565b50505050905090810190601f1680156101815780820380516001836020036101000a031916815260200191505b509250505060405180910390f35b341561019a57600080fd5b6101cf600480803590602001909190803573ffffffffffffffffffffffffffffffffffffffff16906020019091905050610572565b005b34156101dc57600080fd5b6101f26004808035906020019091905050610666565b6040518082815260200191505060405180910390f35b341561021357600080fd5b61021b61067e565b6040518082815260200191505060405180910390f35b341561023c57600080fd5b610271600480803573ffffffffffffffffffffffffffffffffffffffff16906020019091908035906020019091905050610684565b005b341561027e57600080fd5b61028661072a565b6040518082815260200191505060405180910390f35b34156102a757600080fd5b6102af610730565b604051808273ffffffffffffffffffffffffffffffffffffffff1673ffffffffffffffffffffffffffffffffffffffff16815260200191505060405180910390f35b34156102fc57600080fd5b6103126004808035906020019091905050610755565b604051808273ffffffffffffffffffffffffffffffffffffffff1673ffffffffffffffffffffffffffffffffffffffff16815260200191505060405180910390f35b341561035f57600080fd5b6103756004808035906020019091905050610788565b604051808215151515815260200191505060405180910390f35b341561039a57600080fd5b6103c6600480803573ffffffffffffffffffffffffffffffffffffffff1690602001909190505061078f565b005b34156103d357600080fd5b6103ff600480803573ffffffffffffffffffffffffffffffffffffffff16906020019091905050610847565b005b341561040c57600080fd5b610438600480803573ffffffffffffffffffffffffffffffffffffffff16906020019091905050610900565b6040518084151515158152602001838152602001828152602001935050505060405180910390f35b341561046b57600080fd5b610497600480803573ffffffffffffffffffffffffffffffffffffffff16906020019091905050610937565b005b6104a281610788565b15156104ad57600080fd5b60036000838152602001908152602001600020600081548092919060010191905055505050565b60048054600181600116156101000203166002900480601f01602080910402602001604051908101604052809291908181526020018280546001816001161561010002031660029004801561056a5780601f1061053f5761010080835404028352916020019161056a565b820191906000526020600020905b81548152906001019060200180831161054d57829003601f168201915b505050505081565b6000809054906101000a900473ffffffffffffffffffffffffffffffffffffffff1673ffffffffffffffffffffffffffffffffffffffff163373ffffffffffffffffffffffffffffffffffffffff161415156105cd57600080fd5b806002600084815260200190815260200160002060006101000a81548173ffffffffffffffffffffffffffffffffffffffff021916908373ffffffffffffffffffffffffffffffffffffffff1602179055508073ffffffffffffffffffffffffffffffffffffffff167f55b7047c2c8b38efa103eb9162702b6460971845288a96d59b83b3addee1583160405160405180910390a25050565b60036020528060005260406000206000915090505481565b60055481565b6000809054906101000a900473ffffffffffffffffffffffffffffffffffffffff1673ffffffffffffffffffffffffffffffffffffffff163373ffffffffffffffffffffffffffffffffffffffff161415156106df57600080fd5b80600160008473ffffffffffffffffffffffffffffffffffffffff1673ffffffffffffffffffffffffffffffffffffffff168152602001908152602001600020600201819055505050565b60065481565b6000809054906101000a900473ffffffffffffffffffffffffffffffffffffffff1681565b60026020528060005260406000206000915054906101000a900473ffffffffffffffffffffffffffffffffffffffff1681565b6000919050565b6000809054906101000a900473ffffffffffffffffffffffffffffffffffffffff1673ffffffffffffffffffffffffffffffffffffffff163373ffffffffffffffffffffffffffffffffffffffff161415156107ea57600080fd5b60018060008373ffffffffffffffffffffffffffffffffffffffff1673ffffffffffffffffffffffffffffffffffffffff16815260200190815260200160002060000160006101000a81548160ff02191690831515021790555050565b6000809054906101000a900473ffffffffffffffffffffffffffffffffffffffff1673ffffffffffffffffffffffffffffffffffffffff163373ffffffffffffffffffffffffffffffffffffffff161415156108a257600080fd5b6000600160008373ffffffffffffffffffffffffffffffffffffffff1673ffffffffffffffffffffffffffffffffffffffff16815260200190815260200160002060000160006101000a81548160ff02191690831515021790555050565b60016020528060005260406000206000915090508060000160009054906101000a900460ff16908060010154908060020154905083565b6000809054906101000a900473ffffffffffffffffffffffffffffffffffffffff1673ffffffffffffffffffffffffffffffffffffffff163373ffffffffffffffffffffffffffffffffffffffff1614151561099257600080fd5b600073ffffffffffffffffffffffffffffffffffffffff168173ffffffffffffffffffffffffffffffffffffffff16141515156109ce57600080fd5b8073ffffffffffffffffffffffffffffffffffffffff166000809054906101000a900473ffffffffffffffffffffffffffffffffffffffff1673ffffffffffffffffffffffffffffffffffffffff167f8be0079c531659141344cd1fd0a4f28419497f9722a3daafe3b4186f6b6457e060405160405180910390a3806000806101000a81548173ffffffffffffffffffffffffffffffffffffffff021916908373ffffffffffffffffffffffffffffffffffffffff160217905550505600a165627a7a72305820772879236113622d3d56b65be358cf2e9cdb589c535535509e201980090e5b910029",
  "source": "pragma solidity ^0.4.18;\n\nimport 'zeppelin-solidity/contracts/ownership/Ownable.sol';\n\ncontract Election is Ownable  {\n  mapping (address => Voter) public eligibleVoters;\n  mapping (uint256 => address) public blindedVotes;\n  mapping (uint256 => uint256) public votes; //counts the votes for specific options\n\n  string public question;\n\n  uint256 public publicModulo;\n  uint256 public publicExponent;\n\n  struct Voter {\n    bool eligible;\n    uint256 blindedVote;\n    uint256 signedBlindedVote;\n  }\n\n  event RequestToBlindlySign(address indexed voter);\n\n  //constructor\n  function Election (string _question, uint256 _publicModulo, uint256 _publicExponent) public {\n    question = _question;\n    publicModulo = _publicModulo;\n    publicExponent = _publicExponent;\n  }\n\n\n  function requestBlindlSig(uint256 blindedVote, address voter) onlyOwner public {\n    blindedVotes[blindedVote] = voter;\n    RequestToBlindlySign(voter);\n  }\n\n  function writeBlindSig(address _voter, uint256 blindSig) onlyOwner public {\n    eligibleVoters[_voter].signedBlindedVote = blindSig;\n  }\n\n  function Vote(uint256 vote, uint256 blindlySignedVote) public {\n    require(verifyBlindSig(blindlySignedVote));\n    votes[vote]++;\n  }\n\n  function addEligibleVoter(address _voter) onlyOwner public {\n    eligibleVoters[_voter].eligible = true;\n  }\n\n  function removeEligibleVoter(address _voter) onlyOwner public {\n    eligibleVoters[_voter].eligible = false;\n  }\n  //TODO should verify the sig against the given pubKey\n  function verifyBlindSig(uint256 blindlySignedVote) public returns (bool){\n\n  }\n}\n",
  "sourcePath": "/home/seres/evoting/contracts/Election.sol",
  "compiler": {
    "name": "solc",
    "version": "0.4.18+commit.9cf6e910.Emscripten.clang"
  },
  "schemaVersion": "1.0.1",
  "updatedAt": "2018-02-26T14:44:24.187Z"
}