{
  "contractName": "Election",
  "abi": [
    {
      "constant": true,
      "inputs": [],
      "name": "question",
      "outputs": [
        {
          "name": "",
          "type": "string"
        }
      ],
      "payable": false,
      "stateMutability": "view",
      "type": "function"
    },
    {
      "constant": false,
      "inputs": [
        {
          "name": "choiceCode",
          "type": "uint256"
        },
        {
          "name": "vote",
          "type": "uint256"
        },
        {
          "name": "hashVote",
          "type": "uint256"
        },
        {
          "name": "blindlySignedVote",
          "type": "uint256"
        }
      ],
      "name": "Vote",
      "outputs": [],
      "payable": false,
      "stateMutability": "nonpayable",
      "type": "function"
    },
    {
      "constant": true,
      "inputs": [
        {
          "name": "",
          "type": "uint256"
        }
      ],
      "name": "votes",
      "outputs": [
        {
          "name": "",
          "type": "uint256"
        }
      ],
      "payable": false,
      "stateMutability": "view",
      "type": "function"
    },
    {
      "constant": true,
      "inputs": [],
      "name": "publicModulo",
      "outputs": [
        {
          "name": "",
          "type": "uint256"
        }
      ],
      "payable": false,
      "stateMutability": "view",
      "type": "function"
    },
    {
      "constant": false,
      "inputs": [
        {
          "name": "_voter",
          "type": "address"
        },
        {
          "name": "blindSig",
          "type": "uint256"
        }
      ],
      "name": "writeBlindSig",
      "outputs": [],
      "payable": false,
      "stateMutability": "nonpayable",
      "type": "function"
    },
    {
      "constant": false,
      "inputs": [
        {
          "name": "blindedVote",
          "type": "uint256"
        }
      ],
      "name": "requestBlindSig",
      "outputs": [],
      "payable": false,
      "stateMutability": "nonpayable",
      "type": "function"
    },
    {
      "constant": true,
      "inputs": [],
      "name": "publicExponent",
      "outputs": [
        {
          "name": "",
          "type": "uint256"
        }
      ],
      "payable": false,
      "stateMutability": "view",
      "type": "function"
    },
    {
      "constant": true,
      "inputs": [],
      "name": "verifiedSig",
      "outputs": [
        {
          "name": "",
          "type": "uint256"
        }
      ],
      "payable": false,
      "stateMutability": "view",
      "type": "function"
    },
    {
      "constant": false,
      "inputs": [],
      "name": "generatingSigs",
      "outputs": [],
      "payable": false,
      "stateMutability": "nonpayable",
      "type": "function"
    },
    {
      "constant": true,
      "inputs": [],
      "name": "owner",
      "outputs": [
        {
          "name": "",
          "type": "address"
        }
      ],
      "payable": false,
      "stateMutability": "view",
      "type": "function"
    },
    {
      "constant": false,
      "inputs": [
        {
          "name": "vote",
          "type": "uint256"
        },
        {
          "name": "blindlySignedVote",
          "type": "uint256"
        }
      ],
      "name": "verifyBlindSig",
      "outputs": [
        {
          "name": "",
          "type": "bool"
        }
      ],
      "payable": false,
      "stateMutability": "nonpayable",
      "type": "function"
    },
    {
      "constant": true,
      "inputs": [],
      "name": "blindlySignedSig",
      "outputs": [
        {
          "name": "",
          "type": "uint256"
        }
      ],
      "payable": false,
      "stateMutability": "view",
      "type": "function"
    },
    {
      "constant": true,
      "inputs": [
        {
          "name": "",
          "type": "uint256"
        }
      ],
      "name": "blindedVotes",
      "outputs": [
        {
          "name": "",
          "type": "address"
        }
      ],
      "payable": false,
      "stateMutability": "view",
      "type": "function"
    },
    {
      "constant": false,
      "inputs": [
        {
          "name": "_voter",
          "type": "address"
        }
      ],
      "name": "addEligibleVoter",
      "outputs": [],
      "payable": false,
      "stateMutability": "nonpayable",
      "type": "function"
    },
    {
      "constant": false,
      "inputs": [
        {
          "name": "_voter",
          "type": "address"
        }
      ],
      "name": "removeEligibleVoter",
      "outputs": [],
      "payable": false,
      "stateMutability": "nonpayable",
      "type": "function"
    },
    {
      "constant": true,
      "inputs": [
        {
          "name": "",
          "type": "address"
        }
      ],
      "name": "eligibleVoters",
      "outputs": [
        {
          "name": "eligible",
          "type": "bool"
        },
        {
          "name": "blindedVote",
          "type": "uint256"
        },
        {
          "name": "signedBlindedVote",
          "type": "uint256"
        }
      ],
      "payable": false,
      "stateMutability": "view",
      "type": "function"
    },
    {
      "constant": false,
      "inputs": [
        {
          "name": "newOwner",
          "type": "address"
        }
      ],
      "name": "transferOwnership",
      "outputs": [],
      "payable": false,
      "stateMutability": "nonpayable",
      "type": "function"
    },
    {
      "inputs": [
        {
          "name": "_question",
          "type": "string"
        }
      ],
      "payable": false,
      "stateMutability": "nonpayable",
      "type": "constructor"
    },
    {
      "anonymous": false,
      "inputs": [
        {
          "indexed": true,
          "name": "voter",
          "type": "address"
        }
      ],
      "name": "RequestToBlindlySign",
      "type": "event"
    },
    {
      "anonymous": false,
      "inputs": [
        {
          "indexed": true,
          "name": "voter",
          "type": "address"
        },
        {
          "indexed": false,
          "name": "hashOfVote",
          "type": "uint256"
        }
      ],
      "name": "voteSuccess",
      "type": "event"
    },
    {
      "anonymous": false,
      "inputs": [
        {
          "indexed": false,
          "name": "vote",
          "type": "uint256"
        },
        {
          "indexed": false,
          "name": "votehash",
          "type": "uint256"
        }
      ],
      "name": "debug",
      "type": "event"
    },
    {
      "anonymous": false,
      "inputs": [
        {
          "indexed": true,
          "name": "previousOwner",
          "type": "address"
        },
        {
          "indexed": true,
          "name": "newOwner",
          "type": "address"
        }
      ],
      "name": "OwnershipTransferred",
      "type": "event"
    }
  ],
  "bytecode": "0x606060405260376005556007600655341561001957600080fd5b604051610edb380380610edb83398101604052808051820191905050336000806101000a81548173ffffffffffffffffffffffffffffffffffffffff021916908373ffffffffffffffffffffffffffffffffffffffff160217905550806004908051906020019061008b929190610092565b5050610137565b828054600181600116156101000203166002900490600052602060002090601f016020900481019282601f106100d357805160ff1916838001178555610101565b82800160010185558215610101579182015b828111156101005782518255916020019190600101906100e5565b5b50905061010e9190610112565b5090565b61013491905b80821115610130576000816000905550600101610118565b5090565b90565b610d95806101466000396000f3006060604052600436106100f1576000357c0100000000000000000000000000000000000000000000000000000000900463ffffffff1680633fad9ae0146100f65780635ae5209a146101845780635df81330146101c25780635ea753e6146101f95780637107f85b146102225780637c05eff9146102645780637e81a2861461028757806386280051146102b05780638b52f137146102d95780638da5cb5b146102ee5780638dadc4b3146103435780639e89eff014610387578063bde83666146103b0578063dc4d2dbc14610413578063dec79c8a1461044c578063e8efd48014610485578063f2fde38b146104e4575b600080fd5b341561010157600080fd5b61010961051d565b6040518080602001828103825283818151815260200191508051906020019080838360005b8381101561014957808201518184015260208101905061012e565b50505050905090810190601f1680156101765780820380516001836020036101000a031916815260200191505b509250505060405180910390f35b341561018f57600080fd5b6101c060048080359060200190919080359060200190919080359060200190919080359060200190919050506105bb565b005b34156101cd57600080fd5b6101e360048080359060200190919050506106bc565b6040518082815260200191505060405180910390f35b341561020457600080fd5b61020c6106d4565b6040518082815260200191505060405180910390f35b341561022d57600080fd5b610262600480803573ffffffffffffffffffffffffffffffffffffffff169060200190919080359060200190919050506106da565b005b341561026f57600080fd5b6102856004808035906020019091905050610780565b005b341561029257600080fd5b61029a6108ce565b6040518082815260200191505060405180910390f35b34156102bb57600080fd5b6102c36108d4565b6040518082815260200191505060405180910390f35b34156102e457600080fd5b6102ec6108da565b005b34156102f957600080fd5b610301610921565b604051808273ffffffffffffffffffffffffffffffffffffffff1673ffffffffffffffffffffffffffffffffffffffff16815260200191505060405180910390f35b341561034e57600080fd5b61036d6004808035906020019091908035906020019091905050610946565b604051808215151515815260200191505060405180910390f35b341561039257600080fd5b61039a610977565b6040518082815260200191505060405180910390f35b34156103bb57600080fd5b6103d1600480803590602001909190505061097d565b604051808273ffffffffffffffffffffffffffffffffffffffff1673ffffffffffffffffffffffffffffffffffffffff16815260200191505060405180910390f35b341561041e57600080fd5b61044a600480803573ffffffffffffffffffffffffffffffffffffffff169060200190919050506109b0565b005b341561045757600080fd5b610483600480803573ffffffffffffffffffffffffffffffffffffffff16906020019091905050610a68565b005b341561049057600080fd5b6104bc600480803573ffffffffffffffffffffffffffffffffffffffff16906020019091905050610b21565b6040518084151515158152602001838152602001828152602001935050505060405180910390f35b34156104ef57600080fd5b61051b600480803573ffffffffffffffffffffffffffffffffffffffff16906020019091905050610b58565b005b60048054600181600116156101000203166002900480601f0160208091040260200160405190810160405280929190818152602001828054600181600116156101000203166002900480156105b35780601f10610588576101008083540402835291602001916105b3565b820191906000526020600020905b81548152906001019060200180831161059657829003601f168201915b505050505081565b6105c58282610946565b507fc18d58b672474e297a14191f0e7a7f558980f2c1f4ada19f14d788bf1d15a404836040518082815260200191505060405180910390206001900483604051808381526020018281526020019250505060405180910390a181836040518082815260200191505060405180910390206001900414151561064557600080fd5b60036000858152602001908152602001600020600081548092919060010191905055503373ffffffffffffffffffffffffffffffffffffffff167fb4867b9272c3edcea5da9adc46dc2d723f4b6fdadb0164799e59bbbaa80791eb836040518082815260200191505060405180910390a250505050565b60036020528060005260406000206000915090505481565b60055481565b6000809054906101000a900473ffffffffffffffffffffffffffffffffffffffff1673ffffffffffffffffffffffffffffffffffffffff163373ffffffffffffffffffffffffffffffffffffffff1614151561073557600080fd5b80600160008473ffffffffffffffffffffffffffffffffffffffff1673ffffffffffffffffffffffffffffffffffffffff168152602001908152602001600020600201819055505050565b600160003373ffffffffffffffffffffffffffffffffffffffff1673ffffffffffffffffffffffffffffffffffffffff16815260200190815260200160002060000160009054906101000a900460ff1615156107db57600080fd5b336002600083815260200190815260200160002060006101000a81548173ffffffffffffffffffffffffffffffffffffffff021916908373ffffffffffffffffffffffffffffffffffffffff1602179055503373ffffffffffffffffffffffffffffffffffffffff167f55b7047c2c8b38efa103eb9162702b6460971845288a96d59b83b3addee1583160405160405180910390a26000600160003373ffffffffffffffffffffffffffffffffffffffff1673ffffffffffffffffffffffffffffffffffffffff16815260200190815260200160002060000160006101000a81548160ff02191690831515021790555050565b60065481565b60085481565b6109026001604051808281526020019150506040518091039020600190046017600554610cad565b600781905550610919600754600654600554610cad565b600881905550565b6000809054906101000a900473ffffffffffffffffffffffffffffffffffffffff1681565b60006005548381151561095557fe5b0661096583600654600554610cad565b14151561097157600080fd5b92915050565b60075481565b60026020528060005260406000206000915054906101000a900473ffffffffffffffffffffffffffffffffffffffff1681565b6000809054906101000a900473ffffffffffffffffffffffffffffffffffffffff1673ffffffffffffffffffffffffffffffffffffffff163373ffffffffffffffffffffffffffffffffffffffff16141515610a0b57600080fd5b60018060008373ffffffffffffffffffffffffffffffffffffffff1673ffffffffffffffffffffffffffffffffffffffff16815260200190815260200160002060000160006101000a81548160ff02191690831515021790555050565b6000809054906101000a900473ffffffffffffffffffffffffffffffffffffffff1673ffffffffffffffffffffffffffffffffffffffff163373ffffffffffffffffffffffffffffffffffffffff16141515610ac357600080fd5b6000600160008373ffffffffffffffffffffffffffffffffffffffff1673ffffffffffffffffffffffffffffffffffffffff16815260200190815260200160002060000160006101000a81548160ff02191690831515021790555050565b60016020528060005260406000206000915090508060000160009054906101000a900460ff16908060010154908060020154905083565b6000809054906101000a900473ffffffffffffffffffffffffffffffffffffffff1673ffffffffffffffffffffffffffffffffffffffff163373ffffffffffffffffffffffffffffffffffffffff16141515610bb357600080fd5b600073ffffffffffffffffffffffffffffffffffffffff168173ffffffffffffffffffffffffffffffffffffffff1614151515610bef57600080fd5b8073ffffffffffffffffffffffffffffffffffffffff166000809054906101000a900473ffffffffffffffffffffffffffffffffffffffff1673ffffffffffffffffffffffffffffffffffffffff167f8be0079c531659141344cd1fd0a4f28419497f9722a3daafe3b4186f6b6457e060405160405180910390a3806000806101000a81548173ffffffffffffffffffffffffffffffffffffffff021916908373ffffffffffffffffffffffffffffffffffffffff16021790555050565b6000806000851415610cc25760009150610d61565b6000841415610cd45760019150610d61565b6000831415610ce257600080fd5b600191507f800000000000000000000000000000000000000000000000000000000000000090505b8015610d6057828185161515860a84848509099150826002820485161515860a84848509099150826004820485161515860a84848509099150826008820485161515860a84848509099150601081049050610d0a565b5b5093925050505600a165627a7a72305820bcc6dd51ecd822cf19f2f15709abdb71663c8f05d285b7f0620bd7ff54e9b9cd0029",
  "source": "pragma solidity ^0.4.18;\n\nimport 'zeppelin-solidity/contracts/ownership/Ownable.sol';\nimport {ECCMath} from \"crypto/ECCMath.sol\";\n\ncontract Election is Ownable  {\n  mapping (address => Voter) public eligibleVoters;\n  mapping (uint256 => address) public blindedVotes;\n  mapping (uint256 => uint256) public votes; //counts the votes for specific options\n\n  string public question;\n\n  //prime1 11\n  //prime2 5\n  uint256 public publicModulo = 55;\n  \n  //privKey: 23\n  uint256 public publicExponent = 7;\n  \n  \n  uint256 public blindlySignedSig;\n  uint256 public verifiedSig;\n\n  struct Voter {\n    bool eligible;\n    uint256 blindedVote;\n    uint256 signedBlindedVote;\n  }\n\n  event RequestToBlindlySign(address indexed voter);\n  event voteSuccess(address indexed voter, uint256 hashOfVote);\n  event debug(uint256 vote, uint256 votehash);\n\n  //constructor\n  function Election (string _question) public {\n    question = _question;\n    //publicModulo = _publicModulo;\n    //publicExponent = _publicExponent;\n  }\n\n\n  function requestBlindSig(uint256 blindedVote) public {\n    require(eligibleVoters[msg.sender].eligible);\n    blindedVotes[blindedVote] = msg.sender;\n    RequestToBlindlySign(msg.sender);\n    eligibleVoters[msg.sender].eligible = false;\n  }\n\n  function writeBlindSig(address _voter, uint256 blindSig) onlyOwner public {\n    eligibleVoters[_voter].signedBlindedVote = blindSig;\n  }\n\n\n//uint(keccak256(uint(1))): 80084422859880547211683076133703299733277748156566366325829078699459944778998\n//keccak256(uint(1)): 0xb10e2d527612073b26eecdfd717e6a320cf44b4afac2b0732d9fcbe2b7fa0cf6\n//blindlySignedShit: 22249075885109206276024811279364626717013279169439911258\n  function Vote(uint256 choiceCode, uint256 vote, uint256 hashVote, uint256 blindlySignedVote) public {\n    verifyBlindSig(hashVote, blindlySignedVote);\n    debug(uint(keccak256(uint(vote))),hashVote);\n    require(uint(keccak256(uint(vote))) == hashVote);\n    votes[choiceCode]++;\n\n    voteSuccess(msg.sender,hashVote);\n  }\n\n  function addEligibleVoter(address _voter) onlyOwner public {\n    eligibleVoters[_voter].eligible = true;\n  }\n\n  function removeEligibleVoter(address _voter) onlyOwner public {\n    eligibleVoters[_voter].eligible = false;\n  }\n  function verifyBlindSig(uint256 vote,uint256 blindlySignedVote) public returns (bool){\n    require(ECCMath.expmod(blindlySignedVote,publicExponent,publicModulo) == (vote % publicModulo));\n  }\n  \n  function generatingSigs() public {\n   blindlySignedSig = ECCMath.expmod(uint(keccak256(uint(1))),23,publicModulo);\n   verifiedSig = ECCMath.expmod(blindlySignedSig,publicExponent,publicModulo);\n  }\n}\n",
  "sourcePath": "/home/seres/evoting/contracts/Election.sol",
  "compiler": {
    "name": "solc",
    "version": "0.4.18+commit.9cf6e910.Emscripten.clang"
  },
  "schemaVersion": "1.0.1",
  "updatedAt": "2018-03-05T11:58:01.959Z"
}