{
  "contractName": "Election",
  "abi": [
    {
      "constant": true,
      "inputs": [],
      "name": "question",
      "outputs": [
        {
          "name": "",
          "type": "string"
        }
      ],
      "payable": false,
      "stateMutability": "view",
      "type": "function"
    },
    {
      "constant": false,
      "inputs": [
        {
          "name": "choiceCode",
          "type": "uint256"
        },
        {
          "name": "vote",
          "type": "uint256"
        },
        {
          "name": "hashVote",
          "type": "uint256"
        },
        {
          "name": "blindlySignedVote",
          "type": "uint256"
        }
      ],
      "name": "Vote",
      "outputs": [],
      "payable": false,
      "stateMutability": "nonpayable",
      "type": "function"
    },
    {
      "constant": true,
      "inputs": [
        {
          "name": "",
          "type": "uint256"
        }
      ],
      "name": "votes",
      "outputs": [
        {
          "name": "",
          "type": "uint256"
        }
      ],
      "payable": false,
      "stateMutability": "view",
      "type": "function"
    },
    {
      "constant": true,
      "inputs": [],
      "name": "publicModulo",
      "outputs": [
        {
          "name": "",
          "type": "uint256"
        }
      ],
      "payable": false,
      "stateMutability": "view",
      "type": "function"
    },
    {
      "constant": false,
      "inputs": [
        {
          "name": "_voter",
          "type": "address"
        },
        {
          "name": "blindSig",
          "type": "uint256"
        }
      ],
      "name": "writeBlindSig",
      "outputs": [],
      "payable": false,
      "stateMutability": "nonpayable",
      "type": "function"
    },
    {
      "constant": false,
      "inputs": [
        {
          "name": "blindedVote",
          "type": "uint256"
        }
      ],
      "name": "requestBlindSig",
      "outputs": [],
      "payable": false,
      "stateMutability": "nonpayable",
      "type": "function"
    },
    {
      "constant": true,
      "inputs": [],
      "name": "publicExponent",
      "outputs": [
        {
          "name": "",
          "type": "uint256"
        }
      ],
      "payable": false,
      "stateMutability": "view",
      "type": "function"
    },
    {
      "constant": true,
      "inputs": [],
      "name": "owner",
      "outputs": [
        {
          "name": "",
          "type": "address"
        }
      ],
      "payable": false,
      "stateMutability": "view",
      "type": "function"
    },
    {
      "constant": false,
      "inputs": [
        {
          "name": "vote",
          "type": "uint256"
        },
        {
          "name": "blindlySignedVote",
          "type": "uint256"
        }
      ],
      "name": "verifyBlindSig",
      "outputs": [
        {
          "name": "",
          "type": "bool"
        }
      ],
      "payable": false,
      "stateMutability": "nonpayable",
      "type": "function"
    },
    {
      "constant": true,
      "inputs": [
        {
          "name": "",
          "type": "uint256"
        }
      ],
      "name": "blindedVotes",
      "outputs": [
        {
          "name": "",
          "type": "address"
        }
      ],
      "payable": false,
      "stateMutability": "view",
      "type": "function"
    },
    {
      "constant": false,
      "inputs": [
        {
          "name": "_voter",
          "type": "address"
        }
      ],
      "name": "addEligibleVoter",
      "outputs": [],
      "payable": false,
      "stateMutability": "nonpayable",
      "type": "function"
    },
    {
      "constant": false,
      "inputs": [
        {
          "name": "_voter",
          "type": "address"
        }
      ],
      "name": "removeEligibleVoter",
      "outputs": [],
      "payable": false,
      "stateMutability": "nonpayable",
      "type": "function"
    },
    {
      "constant": true,
      "inputs": [
        {
          "name": "",
          "type": "address"
        }
      ],
      "name": "eligibleVoters",
      "outputs": [
        {
          "name": "eligible",
          "type": "bool"
        },
        {
          "name": "blindedVote",
          "type": "uint256"
        },
        {
          "name": "signedBlindedVote",
          "type": "uint256"
        }
      ],
      "payable": false,
      "stateMutability": "view",
      "type": "function"
    },
    {
      "constant": false,
      "inputs": [
        {
          "name": "newOwner",
          "type": "address"
        }
      ],
      "name": "transferOwnership",
      "outputs": [],
      "payable": false,
      "stateMutability": "nonpayable",
      "type": "function"
    },
    {
      "inputs": [
        {
          "name": "_question",
          "type": "string"
        },
        {
          "name": "_publicModulo",
          "type": "uint256"
        },
        {
          "name": "_publicExponent",
          "type": "uint256"
        }
      ],
      "payable": false,
      "stateMutability": "nonpayable",
      "type": "constructor"
    },
    {
      "anonymous": false,
      "inputs": [
        {
          "indexed": true,
          "name": "voter",
          "type": "address"
        }
      ],
      "name": "RequestToBlindlySign",
      "type": "event"
    },
    {
      "anonymous": false,
      "inputs": [
        {
          "indexed": true,
          "name": "voter",
          "type": "address"
        },
        {
          "indexed": false,
          "name": "hashOfVote",
          "type": "uint256"
        }
      ],
      "name": "voteSuccess",
      "type": "event"
    },
    {
      "anonymous": false,
      "inputs": [
        {
          "indexed": true,
          "name": "previousOwner",
          "type": "address"
        },
        {
          "indexed": true,
          "name": "newOwner",
          "type": "address"
        }
      ],
      "name": "OwnershipTransferred",
      "type": "event"
    }
  ],
  "bytecode": "0x6060604052770a129661cf3ac8036df151c2c9dcfc6d78ee8c3c6ba2db7360055562010001600655341561003257600080fd5b604051610dd2380380610dd283398101604052808051820191906020018051906020019091908051906020019091905050336000806101000a81548173ffffffffffffffffffffffffffffffffffffffff021916908373ffffffffffffffffffffffffffffffffffffffff16021790555082600490805190602001906100b99291906100c2565b50505050610167565b828054600181600116156101000203166002900490600052602060002090601f016020900481019282601f1061010357805160ff1916838001178555610131565b82800160010185558215610131579182015b82811115610130578251825591602001919060010190610115565b5b50905061013e9190610142565b5090565b61016491905b80821115610160576000816000905550600101610148565b5090565b90565b610c5c806101766000396000f3006060604052600436106100d0576000357c0100000000000000000000000000000000000000000000000000000000900463ffffffff1680633fad9ae0146100d55780635ae5209a146101635780635df81330146101a15780635ea753e6146101d85780637107f85b146102015780637c05eff9146102435780637e81a286146102665780638da5cb5b1461028f5780638dadc4b3146102e4578063bde8366614610328578063dc4d2dbc1461038b578063dec79c8a146103c4578063e8efd480146103fd578063f2fde38b1461045c575b600080fd5b34156100e057600080fd5b6100e8610495565b6040518080602001828103825283818151815260200191508051906020019080838360005b8381101561012857808201518184015260208101905061010d565b50505050905090810190601f1680156101555780820380516001836020036101000a031916815260200191505b509250505060405180910390f35b341561016e57600080fd5b61019f6004808035906020019091908035906020019091908035906020019091908035906020019091905050610533565b005b34156101ac57600080fd5b6101c260048080359060200190919050506105e3565b6040518082815260200191505060405180910390f35b34156101e357600080fd5b6101eb6105fb565b6040518082815260200191505060405180910390f35b341561020c57600080fd5b610241600480803573ffffffffffffffffffffffffffffffffffffffff16906020019091908035906020019091905050610601565b005b341561024e57600080fd5b61026460048080359060200190919050506106a7565b005b341561027157600080fd5b6102796107f5565b6040518082815260200191505060405180910390f35b341561029a57600080fd5b6102a26107fb565b604051808273ffffffffffffffffffffffffffffffffffffffff1673ffffffffffffffffffffffffffffffffffffffff16815260200191505060405180910390f35b34156102ef57600080fd5b61030e6004808035906020019091908035906020019091905050610820565b604051808215151515815260200191505060405180910390f35b341561033357600080fd5b6103496004808035906020019091905050610844565b604051808273ffffffffffffffffffffffffffffffffffffffff1673ffffffffffffffffffffffffffffffffffffffff16815260200191505060405180910390f35b341561039657600080fd5b6103c2600480803573ffffffffffffffffffffffffffffffffffffffff16906020019091905050610877565b005b34156103cf57600080fd5b6103fb600480803573ffffffffffffffffffffffffffffffffffffffff1690602001909190505061092f565b005b341561040857600080fd5b610434600480803573ffffffffffffffffffffffffffffffffffffffff169060200190919050506109e8565b6040518084151515158152602001838152602001828152602001935050505060405180910390f35b341561046757600080fd5b610493600480803573ffffffffffffffffffffffffffffffffffffffff16906020019091905050610a1f565b005b60048054600181600116156101000203166002900480601f01602080910402602001604051908101604052809291908181526020018280546001816001161561010002031660029004801561052b5780601f106105005761010080835404028352916020019161052b565b820191906000526020600020905b81548152906001019060200180831161050e57829003601f168201915b505050505081565b61053d8282610820565b508160010260001916836040518082815260200191505060405180910390206000191614151561056c57600080fd5b60036000858152602001908152602001600020600081548092919060010191905055503373ffffffffffffffffffffffffffffffffffffffff167fb4867b9272c3edcea5da9adc46dc2d723f4b6fdadb0164799e59bbbaa80791eb836040518082815260200191505060405180910390a250505050565b60036020528060005260406000206000915090505481565b60055481565b6000809054906101000a900473ffffffffffffffffffffffffffffffffffffffff1673ffffffffffffffffffffffffffffffffffffffff163373ffffffffffffffffffffffffffffffffffffffff1614151561065c57600080fd5b80600160008473ffffffffffffffffffffffffffffffffffffffff1673ffffffffffffffffffffffffffffffffffffffff168152602001908152602001600020600201819055505050565b600160003373ffffffffffffffffffffffffffffffffffffffff1673ffffffffffffffffffffffffffffffffffffffff16815260200190815260200160002060000160009054906101000a900460ff16151561070257600080fd5b336002600083815260200190815260200160002060006101000a81548173ffffffffffffffffffffffffffffffffffffffff021916908373ffffffffffffffffffffffffffffffffffffffff1602179055503373ffffffffffffffffffffffffffffffffffffffff167f55b7047c2c8b38efa103eb9162702b6460971845288a96d59b83b3addee1583160405160405180910390a26000600160003373ffffffffffffffffffffffffffffffffffffffff1673ffffffffffffffffffffffffffffffffffffffff16815260200190815260200160002060000160006101000a81548160ff02191690831515021790555050565b60065481565b6000809054906101000a900473ffffffffffffffffffffffffffffffffffffffff1681565b60008261083283600654600554610b74565b14151561083e57600080fd5b92915050565b60026020528060005260406000206000915054906101000a900473ffffffffffffffffffffffffffffffffffffffff1681565b6000809054906101000a900473ffffffffffffffffffffffffffffffffffffffff1673ffffffffffffffffffffffffffffffffffffffff163373ffffffffffffffffffffffffffffffffffffffff161415156108d257600080fd5b60018060008373ffffffffffffffffffffffffffffffffffffffff1673ffffffffffffffffffffffffffffffffffffffff16815260200190815260200160002060000160006101000a81548160ff02191690831515021790555050565b6000809054906101000a900473ffffffffffffffffffffffffffffffffffffffff1673ffffffffffffffffffffffffffffffffffffffff163373ffffffffffffffffffffffffffffffffffffffff1614151561098a57600080fd5b6000600160008373ffffffffffffffffffffffffffffffffffffffff1673ffffffffffffffffffffffffffffffffffffffff16815260200190815260200160002060000160006101000a81548160ff02191690831515021790555050565b60016020528060005260406000206000915090508060000160009054906101000a900460ff16908060010154908060020154905083565b6000809054906101000a900473ffffffffffffffffffffffffffffffffffffffff1673ffffffffffffffffffffffffffffffffffffffff163373ffffffffffffffffffffffffffffffffffffffff16141515610a7a57600080fd5b600073ffffffffffffffffffffffffffffffffffffffff168173ffffffffffffffffffffffffffffffffffffffff1614151515610ab657600080fd5b8073ffffffffffffffffffffffffffffffffffffffff166000809054906101000a900473ffffffffffffffffffffffffffffffffffffffff1673ffffffffffffffffffffffffffffffffffffffff167f8be0079c531659141344cd1fd0a4f28419497f9722a3daafe3b4186f6b6457e060405160405180910390a3806000806101000a81548173ffffffffffffffffffffffffffffffffffffffff021916908373ffffffffffffffffffffffffffffffffffffffff16021790555050565b6000806000851415610b895760009150610c28565b6000841415610b9b5760019150610c28565b6000831415610ba957600080fd5b600191507f800000000000000000000000000000000000000000000000000000000000000090505b8015610c2757828185161515860a84848509099150826002820485161515860a84848509099150826004820485161515860a84848509099150826008820485161515860a84848509099150601081049050610bd1565b5b5093925050505600a165627a7a7230582089039fbf9721b70066019325433fa9aebff63d9492fc99709ea67f6c49046f3d0029",
  "source": "pragma solidity ^0.4.18;\n\nimport 'zeppelin-solidity/contracts/ownership/Ownable.sol';\nimport {ECCMath} from \"crypto/ECCMath.sol\";\n\ncontract Election is Ownable  {\n  mapping (address => Voter) public eligibleVoters;\n  mapping (uint256 => address) public blindedVotes;\n  mapping (uint256 => uint256) public votes; //counts the votes for specific options\n\n  string public question;\n\n  //96-bit random prime numbers\n  //prime1 52632226726678600070752309183\n  //prime2 4692554808980366270917812557\n  uint256 public publicModulo = 246979608633620626478852615866591005359742015214903810931;\n  //totient of the modulo 246979608633620626478852615809266223824083048873233689192\n  //privKey: 208099455097861223341963187893673510834579946576437192993\n  uint256 public publicExponent = 65537;\n\n  struct Voter {\n    bool eligible;\n    uint256 blindedVote;\n    uint256 signedBlindedVote;\n  }\n\n  event RequestToBlindlySign(address indexed voter);\n    event voteSuccess(address indexed voter, uint256 hashOfVote);\n\n  //constructor\n  function Election (string _question, uint256 _publicModulo, uint256 _publicExponent) public {\n    question = _question;\n    //publicModulo = _publicModulo;\n    //publicExponent = _publicExponent;\n  }\n\n\n  function requestBlindSig(uint256 blindedVote) public {\n    require(eligibleVoters[msg.sender].eligible);\n    blindedVotes[blindedVote] = msg.sender;\n    RequestToBlindlySign(msg.sender);\n    eligibleVoters[msg.sender].eligible = false;\n  }\n\n  function writeBlindSig(address _voter, uint256 blindSig) onlyOwner public {\n    eligibleVoters[_voter].signedBlindedVote = blindSig;\n  }\n\n  function Vote(uint256 choiceCode, uint256 vote, uint256 hashVote, uint256 blindlySignedVote) public {\n    verifyBlindSig(hashVote, blindlySignedVote);\n    require(sha3(vote)==bytes32(hashVote));\n    votes[choiceCode]++;\n\n    voteSuccess(msg.sender, hashVote);\n\n  }\n\n  function addEligibleVoter(address _voter) onlyOwner public {\n    eligibleVoters[_voter].eligible = true;\n  }\n\n  function removeEligibleVoter(address _voter) onlyOwner public {\n    eligibleVoters[_voter].eligible = false;\n  }\n  function verifyBlindSig(uint256 vote,uint256 blindlySignedVote) public returns (bool){\n    require(ECCMath.expmod(blindlySignedVote,publicExponent,publicModulo) == vote);\n  }\n\n\n\n\n\n\n\n\n\n\n\n\n\n\n\n\n\n\n}\n",
  "sourcePath": "/home/seres/evoting/contracts/Election.sol",
  "compiler": {
    "name": "solc",
    "version": "0.4.18+commit.9cf6e910.Emscripten.clang"
  },
  "schemaVersion": "1.0.1",
  "updatedAt": "2018-03-02T10:55:51.696Z"
}