{
  "contractName": "Election",
  "abi": [
    {
      "constant": true,
      "inputs": [],
      "name": "question",
      "outputs": [
        {
          "name": "",
          "type": "string"
        }
      ],
      "payable": false,
      "stateMutability": "view",
      "type": "function"
    },
    {
      "constant": true,
      "inputs": [
        {
          "name": "",
          "type": "uint256"
        }
      ],
      "name": "votes",
      "outputs": [
        {
          "name": "",
          "type": "uint256"
        }
      ],
      "payable": false,
      "stateMutability": "view",
      "type": "function"
    },
    {
      "constant": true,
      "inputs": [],
      "name": "publicModulo",
      "outputs": [
        {
          "name": "",
          "type": "uint256"
        }
      ],
      "payable": false,
      "stateMutability": "view",
      "type": "function"
    },
    {
      "constant": true,
      "inputs": [],
      "name": "publicExponent",
      "outputs": [
        {
          "name": "",
          "type": "uint256"
        }
      ],
      "payable": false,
      "stateMutability": "view",
      "type": "function"
    },
    {
      "constant": true,
      "inputs": [],
      "name": "owner",
      "outputs": [
        {
          "name": "",
          "type": "address"
        }
      ],
      "payable": false,
      "stateMutability": "view",
      "type": "function"
    },
    {
      "constant": true,
      "inputs": [
        {
          "name": "",
          "type": "uint256"
        }
      ],
      "name": "blindedVotes",
      "outputs": [
        {
          "name": "",
          "type": "address"
        }
      ],
      "payable": false,
      "stateMutability": "view",
      "type": "function"
    },
    {
      "constant": true,
      "inputs": [
        {
          "name": "",
          "type": "address"
        }
      ],
      "name": "eligibleVoters",
      "outputs": [
        {
          "name": "eligible",
          "type": "bool"
        },
        {
          "name": "blindedVote",
          "type": "uint256"
        },
        {
          "name": "signedBlindedVote",
          "type": "uint256"
        }
      ],
      "payable": false,
      "stateMutability": "view",
      "type": "function"
    },
    {
      "constant": false,
      "inputs": [
        {
          "name": "newOwner",
          "type": "address"
        }
      ],
      "name": "transferOwnership",
      "outputs": [],
      "payable": false,
      "stateMutability": "nonpayable",
      "type": "function"
    },
    {
      "inputs": [
        {
          "name": "_question",
          "type": "string"
        },
        {
          "name": "_publicModulo",
          "type": "uint256"
        },
        {
          "name": "_publicExponent",
          "type": "uint256"
        }
      ],
      "payable": false,
      "stateMutability": "nonpayable",
      "type": "constructor"
    },
    {
      "anonymous": false,
      "inputs": [
        {
          "indexed": true,
          "name": "voter",
          "type": "address"
        }
      ],
      "name": "RequestToBlindlySign",
      "type": "event"
    },
    {
      "anonymous": false,
      "inputs": [
        {
          "indexed": true,
          "name": "previousOwner",
          "type": "address"
        },
        {
          "indexed": true,
          "name": "newOwner",
          "type": "address"
        }
      ],
      "name": "OwnershipTransferred",
      "type": "event"
    },
    {
      "constant": false,
      "inputs": [
        {
          "name": "blindedVote",
          "type": "uint256"
        }
      ],
      "name": "requestBlindSig",
      "outputs": [],
      "payable": false,
      "stateMutability": "nonpayable",
      "type": "function"
    },
    {
      "constant": false,
      "inputs": [
        {
          "name": "_voter",
          "type": "address"
        },
        {
          "name": "blindSig",
          "type": "uint256"
        }
      ],
      "name": "writeBlindSig",
      "outputs": [],
      "payable": false,
      "stateMutability": "nonpayable",
      "type": "function"
    },
    {
      "constant": false,
      "inputs": [
        {
          "name": "vote",
          "type": "uint256"
        },
        {
          "name": "blindlySignedVote",
          "type": "uint256"
        }
      ],
      "name": "Vote",
      "outputs": [],
      "payable": false,
      "stateMutability": "nonpayable",
      "type": "function"
    },
    {
      "constant": false,
      "inputs": [
        {
          "name": "_voter",
          "type": "address"
        }
      ],
      "name": "addEligibleVoter",
      "outputs": [],
      "payable": false,
      "stateMutability": "nonpayable",
      "type": "function"
    },
    {
      "constant": false,
      "inputs": [
        {
          "name": "_voter",
          "type": "address"
        }
      ],
      "name": "removeEligibleVoter",
      "outputs": [],
      "payable": false,
      "stateMutability": "nonpayable",
      "type": "function"
    },
    {
      "constant": false,
      "inputs": [
        {
          "name": "blindlySignedVote",
          "type": "uint256"
        }
      ],
      "name": "verifyBlindSig",
      "outputs": [
        {
          "name": "",
          "type": "bool"
        }
      ],
      "payable": false,
      "stateMutability": "nonpayable",
      "type": "function"
    }
  ],
  "bytecode": "0x6060604052770a129661cf3ac8036df151c2c9dcfc6d78ee8c3c6ba2db7360055562010001600655341561003257600080fd5b604051610c69380380610c6983398101604052808051820191906020018051906020019091908051906020019091905050336000806101000a81548173ffffffffffffffffffffffffffffffffffffffff021916908373ffffffffffffffffffffffffffffffffffffffff16021790555082600490805190602001906100b99291906100c2565b50505050610167565b828054600181600116156101000203166002900490600052602060002090601f016020900481019282601f1061010357805160ff1916838001178555610131565b82800160010185558215610131579182015b82811115610130578251825591602001919060010190610115565b5b50905061013e9190610142565b5090565b61016491905b80821115610160576000816000905550600101610148565b5090565b90565b610af3806101766000396000f3006060604052600436106100d0576000357c0100000000000000000000000000000000000000000000000000000000900463ffffffff16806333952ef9146100d55780633fad9ae0146101015780635df813301461018f5780635ea753e6146101c65780637107f85b146101ef5780637c05eff9146102315780637e81a286146102545780638da5cb5b1461027d578063bde83666146102d2578063d7d80aff14610335578063dc4d2dbc14610370578063dec79c8a146103a9578063e8efd480146103e2578063f2fde38b14610441575b600080fd5b34156100e057600080fd5b6100ff600480803590602001909190803590602001909190505061047a565b005b341561010c57600080fd5b6101146104b5565b6040518080602001828103825283818151815260200191508051906020019080838360005b83811015610154578082015181840152602081019050610139565b50505050905090810190601f1680156101815780820380516001836020036101000a031916815260200191505b509250505060405180910390f35b341561019a57600080fd5b6101b06004808035906020019091905050610553565b6040518082815260200191505060405180910390f35b34156101d157600080fd5b6101d961056b565b6040518082815260200191505060405180910390f35b34156101fa57600080fd5b61022f600480803573ffffffffffffffffffffffffffffffffffffffff16906020019091908035906020019091905050610571565b005b341561023c57600080fd5b6102526004808035906020019091905050610617565b005b341561025f57600080fd5b610267610765565b6040518082815260200191505060405180910390f35b341561028857600080fd5b61029061076b565b604051808273ffffffffffffffffffffffffffffffffffffffff1673ffffffffffffffffffffffffffffffffffffffff16815260200191505060405180910390f35b34156102dd57600080fd5b6102f36004808035906020019091905050610790565b604051808273ffffffffffffffffffffffffffffffffffffffff1673ffffffffffffffffffffffffffffffffffffffff16815260200191505060405180910390f35b341561034057600080fd5b61035660048080359060200190919050506107c3565b604051808215151515815260200191505060405180910390f35b341561037b57600080fd5b6103a7600480803573ffffffffffffffffffffffffffffffffffffffff169060200190919050506107ca565b005b34156103b457600080fd5b6103e0600480803573ffffffffffffffffffffffffffffffffffffffff16906020019091905050610882565b005b34156103ed57600080fd5b610419600480803573ffffffffffffffffffffffffffffffffffffffff1690602001909190505061093b565b6040518084151515158152602001838152602001828152602001935050505060405180910390f35b341561044c57600080fd5b610478600480803573ffffffffffffffffffffffffffffffffffffffff16906020019091905050610972565b005b610483816107c3565b151561048e57600080fd5b60036000838152602001908152602001600020600081548092919060010191905055505050565b60048054600181600116156101000203166002900480601f01602080910402602001604051908101604052809291908181526020018280546001816001161561010002031660029004801561054b5780601f106105205761010080835404028352916020019161054b565b820191906000526020600020905b81548152906001019060200180831161052e57829003601f168201915b505050505081565b60036020528060005260406000206000915090505481565b60055481565b6000809054906101000a900473ffffffffffffffffffffffffffffffffffffffff1673ffffffffffffffffffffffffffffffffffffffff163373ffffffffffffffffffffffffffffffffffffffff161415156105cc57600080fd5b80600160008473ffffffffffffffffffffffffffffffffffffffff1673ffffffffffffffffffffffffffffffffffffffff168152602001908152602001600020600201819055505050565b600160003373ffffffffffffffffffffffffffffffffffffffff1673ffffffffffffffffffffffffffffffffffffffff16815260200190815260200160002060000160009054906101000a900460ff16151561067257600080fd5b336002600083815260200190815260200160002060006101000a81548173ffffffffffffffffffffffffffffffffffffffff021916908373ffffffffffffffffffffffffffffffffffffffff1602179055503373ffffffffffffffffffffffffffffffffffffffff167f55b7047c2c8b38efa103eb9162702b6460971845288a96d59b83b3addee1583160405160405180910390a26000600160003373ffffffffffffffffffffffffffffffffffffffff1673ffffffffffffffffffffffffffffffffffffffff16815260200190815260200160002060000160006101000a81548160ff02191690831515021790555050565b60065481565b6000809054906101000a900473ffffffffffffffffffffffffffffffffffffffff1681565b60026020528060005260406000206000915054906101000a900473ffffffffffffffffffffffffffffffffffffffff1681565b6000919050565b6000809054906101000a900473ffffffffffffffffffffffffffffffffffffffff1673ffffffffffffffffffffffffffffffffffffffff163373ffffffffffffffffffffffffffffffffffffffff1614151561082557600080fd5b60018060008373ffffffffffffffffffffffffffffffffffffffff1673ffffffffffffffffffffffffffffffffffffffff16815260200190815260200160002060000160006101000a81548160ff02191690831515021790555050565b6000809054906101000a900473ffffffffffffffffffffffffffffffffffffffff1673ffffffffffffffffffffffffffffffffffffffff163373ffffffffffffffffffffffffffffffffffffffff161415156108dd57600080fd5b6000600160008373ffffffffffffffffffffffffffffffffffffffff1673ffffffffffffffffffffffffffffffffffffffff16815260200190815260200160002060000160006101000a81548160ff02191690831515021790555050565b60016020528060005260406000206000915090508060000160009054906101000a900460ff16908060010154908060020154905083565b6000809054906101000a900473ffffffffffffffffffffffffffffffffffffffff1673ffffffffffffffffffffffffffffffffffffffff163373ffffffffffffffffffffffffffffffffffffffff161415156109cd57600080fd5b600073ffffffffffffffffffffffffffffffffffffffff168173ffffffffffffffffffffffffffffffffffffffff1614151515610a0957600080fd5b8073ffffffffffffffffffffffffffffffffffffffff166000809054906101000a900473ffffffffffffffffffffffffffffffffffffffff1673ffffffffffffffffffffffffffffffffffffffff167f8be0079c531659141344cd1fd0a4f28419497f9722a3daafe3b4186f6b6457e060405160405180910390a3806000806101000a81548173ffffffffffffffffffffffffffffffffffffffff021916908373ffffffffffffffffffffffffffffffffffffffff160217905550505600a165627a7a72305820ffa89dab0156ae53a7d3432aceb1bf62a03dfe7f44c0f47713ba233c52aa33260029",
  "source": "pragma solidity ^0.4.18;\n\nimport 'zeppelin-solidity/contracts/ownership/Ownable.sol';\n\ncontract Election is Ownable  {\n  mapping (address => Voter) public eligibleVoters;\n  mapping (uint256 => address) public blindedVotes;\n  mapping (uint256 => uint256) public votes; //counts the votes for specific options\n\n  string public question;\n\n  //96-bit random prime numbers\n  //prime1 52632226726678600070752309183\n  //prime2 4692554808980366270917812557\n  uint256 public publicModulo = 246979608633620626478852615866591005359742015214903810931;\n  //totient of the modulo 246979608633620626478852615809266223824083048873233689192\n  //privKey: 208099455097861223341963187893673510834579946576437192993\n  uint256 public publicExponent = 65537;\n\n  struct Voter {\n    bool eligible;\n    uint256 blindedVote;\n    uint256 signedBlindedVote;\n  }\n\n  event RequestToBlindlySign(address indexed voter);\n\n  //constructor\n  function Election (string _question, uint256 _publicModulo, uint256 _publicExponent) public {\n    question = _question;\n    //publicModulo = _publicModulo;\n    //publicExponent = _publicExponent;\n  }\n\n\n  function requestBlindSig(uint256 blindedVote) public {\n    require(eligibleVoters[msg.sender].eligible);\n    blindedVotes[blindedVote] = msg.sender;\n    RequestToBlindlySign(msg.sender);\n    eligibleVoters[msg.sender].eligible = false;\n  }\n\n  function writeBlindSig(address _voter, uint256 blindSig) onlyOwner public {\n    eligibleVoters[_voter].signedBlindedVote = blindSig;\n  }\n\n  function Vote(uint256 vote, uint256 blindlySignedVote) public {\n    require(verifyBlindSig(blindlySignedVote));\n    votes[vote]++;\n  }\n\n  function addEligibleVoter(address _voter) onlyOwner public {\n    eligibleVoters[_voter].eligible = true;\n  }\n\n  function removeEligibleVoter(address _voter) onlyOwner public {\n    eligibleVoters[_voter].eligible = false;\n  }\n  //TODO should verify the sig against the given pubKey\n  function verifyBlindSig(uint256 blindlySignedVote) public returns (bool){\n//alá lett-e írva a publikus mod cuccosokkal\n\n  }\n}\n",
  "sourcePath": "/home/jani/Documents/Projects/evoting/evoting/contracts/Election.sol",
  "compiler": {
    "name": "solc",
    "version": "0.4.19+commit.c4cbbb05.Emscripten.clang"
  },
  "schemaVersion": "1.0.1",
  "updatedAt": "2018-02-27T16:04:55.307Z"
}